{
  "contractName": "FundTransfer",
  "abi": [
    {
      "inputs": [
        {
          "internalType": "address",
          "name": "_verifierAddress",
          "type": "address"
        }
      ],
      "stateMutability": "nonpayable",
      "type": "constructor"
    },
    {
      "anonymous": false,
      "inputs": [
        {
          "indexed": true,
          "internalType": "uint256",
          "name": "id",
          "type": "uint256"
        },
        {
          "indexed": true,
          "internalType": "address",
          "name": "sender",
          "type": "address"
        },
        {
          "indexed": false,
          "internalType": "uint256",
          "name": "senderBalance",
          "type": "uint256"
        },
        {
          "indexed": false,
          "internalType": "uint256",
          "name": "amount",
          "type": "uint256"
        },
        {
          "indexed": false,
          "internalType": "string",
          "name": "transactionId",
          "type": "string"
        },
        {
          "indexed": false,
          "internalType": "string",
          "name": "details",
          "type": "string"
        }
      ],
      "name": "TransferFund",
      "type": "event"
    },
    {
      "inputs": [],
      "name": "transactionCount",
      "outputs": [
        {
          "internalType": "uint256",
          "name": "",
          "type": "uint256"
        }
      ],
      "stateMutability": "view",
      "type": "function",
      "constant": true
    },
    {
      "inputs": [
        {
          "internalType": "uint256",
          "name": "",
          "type": "uint256"
        }
      ],
      "name": "transactions",
      "outputs": [
        {
          "internalType": "uint256",
          "name": "id",
          "type": "uint256"
        },
        {
          "internalType": "address",
          "name": "sender",
          "type": "address"
        },
        {
          "internalType": "uint256",
          "name": "senderBalance",
          "type": "uint256"
        },
        {
          "internalType": "uint256",
          "name": "amount",
          "type": "uint256"
        },
        {
          "internalType": "string",
          "name": "transactionId",
          "type": "string"
        },
        {
          "internalType": "string",
          "name": "details",
          "type": "string"
        }
      ],
      "stateMutability": "view",
      "type": "function",
      "constant": true
    },
    {
      "inputs": [
        {
          "internalType": "uint256",
          "name": "_id",
          "type": "uint256"
        },
        {
          "internalType": "uint256",
          "name": "_amount",
          "type": "uint256"
        },
        {
          "internalType": "string",
          "name": "_transactionId",
          "type": "string"
        },
        {
          "internalType": "string",
          "name": "_details",
          "type": "string"
        },
        {
          "internalType": "uint256[2]",
          "name": "_pA",
          "type": "uint256[2]"
        },
        {
          "internalType": "uint256[2][2]",
          "name": "_pB",
          "type": "uint256[2][2]"
        },
        {
          "internalType": "uint256[2]",
          "name": "_pC",
          "type": "uint256[2]"
        },
        {
          "internalType": "uint256[1]",
          "name": "_pubSignals",
          "type": "uint256[1]"
        }
      ],
      "name": "transferFund",
      "outputs": [],
      "stateMutability": "nonpayable",
      "type": "function"
    },
    {
      "inputs": [
        {
          "internalType": "uint256",
          "name": "_id",
          "type": "uint256"
        }
      ],
      "name": "getTransaction",
      "outputs": [
        {
          "components": [
            {
              "internalType": "uint256",
              "name": "id",
              "type": "uint256"
            },
            {
              "internalType": "address",
              "name": "sender",
              "type": "address"
            },
            {
              "internalType": "uint256",
              "name": "senderBalance",
              "type": "uint256"
            },
            {
              "internalType": "uint256",
              "name": "amount",
              "type": "uint256"
            },
            {
              "internalType": "string",
              "name": "transactionId",
              "type": "string"
            },
            {
              "internalType": "string",
              "name": "details",
              "type": "string"
            }
          ],
          "internalType": "struct FundTransfer.Transaction",
          "name": "",
          "type": "tuple"
        }
      ],
      "stateMutability": "view",
      "type": "function",
      "constant": true
    }
  ],
  "bytecode": "0x608060405234801561001057600080fd5b50604051610b34380380610b3483398101604081905261002f91610054565b600080546001600160a01b0319166001600160a01b0392909216919091179055610084565b60006020828403121561006657600080fd5b81516001600160a01b038116811461007d57600080fd5b9392505050565b610aa1806100936000396000f3fe608060405234801561001057600080fd5b506004361061004c5760003560e01c806333ea3dc8146100515780639ace38c21461007a578063b77bf6001461009f578063bb33bb30146100b6575b600080fd5b61006461005f36600461059f565b6100cb565b60405161007191906105fe565b60405180910390f35b61008d61008836600461059f565b610288565b60405161007196959493929190610670565b6100a860025481565b604051908152602001610071565b6100c96100c436600461077c565b6103da565b005b61010d6040518060c001604052806000815260200160006001600160a01b03168152602001600081526020016000815260200160608152602001606081525090565b600082815260016020818152604092839020835160c08101855281548152928101546001600160a01b0316918301919091526002810154928201929092526003820154606082015260048201805491929160808401919061016d9061084a565b80601f01602080910402602001604051908101604052809291908181526020018280546101999061084a565b80156101e65780601f106101bb576101008083540402835291602001916101e6565b820191906000526020600020905b8154815290600101906020018083116101c957829003601f168201915b505050505081526020016005820180546101ff9061084a565b80601f016020809104026020016040519081016040528092919081815260200182805461022b9061084a565b80156102785780601f1061024d57610100808354040283529160200191610278565b820191906000526020600020905b81548152906001019060200180831161025b57829003601f168201915b5050505050815250509050919050565b6001602081905260009182526040909120805491810154600282015460038301546004840180546001600160a01b039094169492939192916102c99061084a565b80601f01602080910402602001604051908101604052809291908181526020018280546102f59061084a565b80156103425780601f1061031757610100808354040283529160200191610342565b820191906000526020600020905b81548152906001019060200180831161032557829003601f168201915b5050505050908060050180546103579061084a565b80601f01602080910402602001604051908101604052809291908181526020018280546103839061084a565b80156103d05780601f106103a5576101008083540402835291602001916103d0565b820191906000526020600020905b8154815290600101906020018083116103b357829003601f168201915b5050505050905086565b6000546040516343753b4d60e01b81526001600160a01b03909116906343753b4d90610410908790879087908790600401610884565b602060405180830381865afa15801561042d573d6000803e3d6000fd5b505050506040513d601f19601f8201168201806040525081019061045191906108d0565b6104915760405162461bcd60e51b815260206004820152600d60248201526c24b73b30b634b210383937b7b360991b604482015260640160405180910390fd5b6040805160c0810182528981523360208083018281529131838501818152606085018d8152608086018d815260a087018d90526002805460009081526001968790529890982087518155955194860180546001600160a01b0319166001600160a01b03909616959095179094559051958401959095559351600383015551600482019061051e9082610948565b5060a082015160058201906105339082610948565b50905050336001600160a01b0316897f40c3b96a167aa7429930dac0b2f6c50ec506f28c5686b69290a1a0313a2a79c1838b8b8b6040516105779493929190610a08565b60405180910390a36002805490600061058f83610a44565b9190505550505050505050505050565b6000602082840312156105b157600080fd5b5035919050565b6000815180845260005b818110156105de576020818501810151868301820152016105c2565b506000602082860101526020601f19601f83011685010191505092915050565b602081528151602082015260018060a01b03602083015116604082015260408201516060820152606082015160808201526000608083015160c060a084015261064a60e08401826105b8565b905060a0840151601f198483030160c085015261066782826105b8565b95945050505050565b86815260018060a01b038616602082015284604082015283606082015260c0608082015260006106a360c08301856105b8565b82810360a08401526106b581856105b8565b9998505050505050505050565b634e487b7160e01b600052604160045260246000fd5b600082601f8301126106e957600080fd5b813567ffffffffffffffff80821115610704576107046106c2565b604051601f8301601f19908116603f0116810190828211818310171561072c5761072c6106c2565b8160405283815286602085880101111561074557600080fd5b836020870160208301376000602085830101528094505050505092915050565b806040810183101561077657600080fd5b92915050565b6000806000806000806000806101a0808a8c03121561079a57600080fd5b8935985060208a0135975060408a013567ffffffffffffffff808211156107c057600080fd5b6107cc8d838e016106d8565b985060608c01359150808211156107e257600080fd5b506107ef8c828d016106d8565b9650506107ff8b60808c01610765565b94506101408a018b81111561081357600080fd5b60c08b0194506108238c82610765565b9350508a818b01111561083557600080fd5b50610180890190509295985092959890939650565b600181811c9082168061085e57607f821691505b60208210810361087e57634e487b7160e01b600052602260045260246000fd5b50919050565b61012081016040808784378083018660005b60028110156108b357838284379183019190830190600101610896565b505050808560c08501375060208361010084013795945050505050565b6000602082840312156108e257600080fd5b815180151581146108f257600080fd5b9392505050565b601f82111561094357600081815260208120601f850160051c810160208610156109205750805b601f850160051c820191505b8181101561093f5782815560010161092c565b5050505b505050565b815167ffffffffffffffff811115610962576109626106c2565b61097681610970845461084a565b846108f9565b602080601f8311600181146109ab57600084156109935750858301515b600019600386901b1c1916600185901b17855561093f565b600085815260208120601f198616915b828110156109da578886015182559484019460019091019084016109bb565b50858210156109f85787850151600019600388901b60f8161c191681555b5050505050600190811b01905550565b848152836020820152608060408201526000610a2760808301856105b8565b8281036060840152610a3981856105b8565b979650505050505050565b600060018201610a6457634e487b7160e01b600052601160045260246000fd5b506001019056fea264697066735822122064ad10cca54a3a2bff0fb48877bd7c315d0075846cc3f439796e5330fad1ac7d64736f6c63430008130033",
  "immutableReferences": {},
  "source": "// SPDX-License-Identifier: MIT\r\npragma solidity ^0.8.19;\r\n\r\nimport \"./Groth16Verifier.sol\";\r\n\r\ncontract FundTransfer {\r\n    Groth16Verifier private verifier;\r\n\r\n    struct Transaction {\r\n        uint256 id;\r\n        address sender;\r\n        uint256 senderBalance;\r\n        uint256 amount;\r\n        string transactionId;\r\n        string details;\r\n    }\r\n\r\n    mapping(uint256 => Transaction) public transactions;\r\n    uint256 public transactionCount;\r\n\r\n    event TransferFund(\r\n        uint256 indexed id,\r\n        address indexed sender,\r\n        uint256 senderBalance,\r\n        uint256 amount,\r\n        string transactionId,\r\n        string details\r\n    );\r\n\r\n    constructor(address _verifierAddress) {\r\n        verifier = Groth16Verifier(_verifierAddress);\r\n    }\r\n\r\n    function transferFund(\r\n        uint256 _id,\r\n        uint256 _amount,\r\n        string memory _transactionId,\r\n        string memory _details,\r\n        uint[2] calldata _pA,\r\n        uint[2][2] calldata _pB,\r\n        uint[2] calldata _pC,\r\n        uint[1] calldata _pubSignals\r\n    ) public {\r\n        require(\r\n            verifier.verifyProof(_pA, _pB, _pC, _pubSignals),\r\n            \"Invalid proof\"\r\n        );\r\n\r\n        uint256 senderBalance = msg.sender.balance;\r\n        transactions[transactionCount] = Transaction(\r\n            _id,\r\n            msg.sender,\r\n            senderBalance,\r\n            _amount,\r\n            _transactionId,\r\n            _details\r\n        );\r\n\r\n        emit TransferFund(_id, msg.sender, senderBalance, _amount, _transactionId, _details);\r\n        transactionCount++;\r\n    }\r\n\r\n    function getTransaction(uint256 _id) public view returns (Transaction memory) {\r\n        return transactions[_id];\r\n    }\r\n}\r\n",
  "sourcePath": "C:\\College\\Blockchain\\Transfer_Fund_zk-SNARKs\\Smart Contract\\contracts\\FundTransfer.sol",
  "compiler": {
    "name": "solc",
    "version": "0.8.19+commit.7dd6d404.Emscripten.clang"
  },
  "schemaVersion": "3.4.16",
  "updatedAt": "2025-04-07T09:42:32.986Z",
  "networkType": "ethereum",
  "devdoc": {
    "kind": "dev",
    "methods": {},
    "version": 1
  },
  "userdoc": {
    "kind": "user",
    "methods": {},
    "version": 1
  }
}