{
  "contractName": "FundTransfer",
  "abi": [
    {
      "anonymous": false,
      "inputs": [
        {
          "indexed": true,
          "internalType": "uint256",
          "name": "id",
          "type": "uint256"
        },
        {
          "indexed": true,
          "internalType": "address",
          "name": "sender",
          "type": "address"
        },
        {
          "indexed": true,
          "internalType": "address",
          "name": "receiver",
          "type": "address"
        },
        {
          "indexed": false,
          "internalType": "uint256",
          "name": "senderBalance",
          "type": "uint256"
        },
        {
          "indexed": false,
          "internalType": "uint256",
          "name": "amount",
          "type": "uint256"
        },
        {
          "indexed": false,
          "internalType": "string",
          "name": "transactionId",
          "type": "string"
        },
        {
          "indexed": false,
          "internalType": "string",
          "name": "details",
          "type": "string"
        }
      ],
      "name": "TransferFund",
      "type": "event"
    },
    {
      "inputs": [],
      "name": "transactionCount",
      "outputs": [
        {
          "internalType": "uint256",
          "name": "",
          "type": "uint256"
        }
      ],
      "stateMutability": "view",
      "type": "function",
      "constant": true
    },
    {
      "inputs": [
        {
          "internalType": "uint256",
          "name": "",
          "type": "uint256"
        }
      ],
      "name": "transactions",
      "outputs": [
        {
          "internalType": "uint256",
          "name": "id",
          "type": "uint256"
        },
        {
          "internalType": "address",
          "name": "sender",
          "type": "address"
        },
        {
          "internalType": "address",
          "name": "receiver",
          "type": "address"
        },
        {
          "internalType": "uint256",
          "name": "senderBalance",
          "type": "uint256"
        },
        {
          "internalType": "uint256",
          "name": "amount",
          "type": "uint256"
        },
        {
          "internalType": "string",
          "name": "transactionId",
          "type": "string"
        },
        {
          "internalType": "string",
          "name": "details",
          "type": "string"
        }
      ],
      "stateMutability": "view",
      "type": "function",
      "constant": true
    },
    {
      "inputs": [
        {
          "internalType": "uint256",
          "name": "_id",
          "type": "uint256"
        },
        {
          "internalType": "address payable",
          "name": "_receiver",
          "type": "address"
        },
        {
          "internalType": "uint256",
          "name": "_amount",
          "type": "uint256"
        },
        {
          "internalType": "string",
          "name": "_transactionId",
          "type": "string"
        },
        {
          "internalType": "string",
          "name": "_details",
          "type": "string"
        }
      ],
      "name": "transferFund",
      "outputs": [],
      "stateMutability": "payable",
      "type": "function",
      "payable": true
    },
    {
      "inputs": [
        {
          "internalType": "uint256",
          "name": "_id",
          "type": "uint256"
        }
      ],
      "name": "getTransaction",
      "outputs": [
        {
          "components": [
            {
              "internalType": "uint256",
              "name": "id",
              "type": "uint256"
            },
            {
              "internalType": "address",
              "name": "sender",
              "type": "address"
            },
            {
              "internalType": "address",
              "name": "receiver",
              "type": "address"
            },
            {
              "internalType": "uint256",
              "name": "senderBalance",
              "type": "uint256"
            },
            {
              "internalType": "uint256",
              "name": "amount",
              "type": "uint256"
            },
            {
              "internalType": "string",
              "name": "transactionId",
              "type": "string"
            },
            {
              "internalType": "string",
              "name": "details",
              "type": "string"
            }
          ],
          "internalType": "struct FundTransfer.Transaction",
          "name": "",
          "type": "tuple"
        }
      ],
      "stateMutability": "view",
      "type": "function",
      "constant": true
    }
  ],
  "bytecode": "0x608060405234801561001057600080fd5b50610add806100206000396000f3fe60806040526004361061003f5760003560e01c806333ea3dc8146100445780639ace38c21461007a578063a4d06227146100ad578063b77bf600146100c2575b600080fd5b34801561005057600080fd5b5061006461005f366004610680565b6100e6565b60405161007191906106df565b60405180910390f35b34801561008657600080fd5b5061009a610095366004610680565b6102c1565b6040516100719796959493929190610762565b6100c06100bb366004610865565b61041c565b005b3480156100ce57600080fd5b506100d860015481565b604051908152602001610071565b6101386040518060e001604052806000815260200160006001600160a01b0316815260200160006001600160a01b03168152602001600081526020016000815260200160608152602001606081525090565b60008281526020818152604091829020825160e0810184528154815260018201546001600160a01b0390811693820193909352600282015490921692820192909252600382015460608201526004820154608082015260058201805491929160a0840191906101a6906108fb565b80601f01602080910402602001604051908101604052809291908181526020018280546101d2906108fb565b801561021f5780601f106101f45761010080835404028352916020019161021f565b820191906000526020600020905b81548152906001019060200180831161020257829003601f168201915b50505050508152602001600682018054610238906108fb565b80601f0160208091040260200160405190810160405280929190818152602001828054610264906108fb565b80156102b15780601f10610286576101008083540402835291602001916102b1565b820191906000526020600020905b81548152906001019060200180831161029457829003601f168201915b5050505050815250509050919050565b60006020819052908152604090208054600182015460028301546003840154600485015460058601805495966001600160a01b039586169695909416949293919261030b906108fb565b80601f0160208091040260200160405190810160405280929190818152602001828054610337906108fb565b80156103845780601f1061035957610100808354040283529160200191610384565b820191906000526020600020905b81548152906001019060200180831161036757829003601f168201915b505050505090806006018054610399906108fb565b80601f01602080910402602001604051908101604052809291908181526020018280546103c5906108fb565b80156104125780601f106103e757610100808354040283529160200191610412565b820191906000526020600020905b8154815290600101906020018083116103f557829003601f168201915b5050505050905087565b600083116104715760405162461bcd60e51b815260206004820181905260248201527f416d6f756e74206d7573742062652067726561746572207468616e207a65726f60448201526064015b60405180910390fd5b8234146104c05760405162461bcd60e51b815260206004820152601c60248201527f53656e742076616c7565206d757374206d6174636820616d6f756e74000000006044820152606401610468565b6001600160a01b0384166105165760405162461bcd60e51b815260206004820152601860248201527f496e76616c6964207265636569766572206164647265737300000000000000006044820152606401610468565b6040513331906001600160a01b0386169085156108fc029086906000818181858888f1935050505015801561054f573d6000803e3d6000fd5b506040805160e0810182528781523360208083019182526001600160a01b0389811684860190815260608501878152608086018b815260a087018b815260c088018b9052600180546000908152968790529890952087518155955197860180549885166001600160a01b0319998a161790559151600286018054919094169716969096179091559351600383015592516004820155915190919060058201906105f89082610984565b5060c0820151600682019061060d9082610984565b50905050846001600160a01b0316336001600160a01b0316877fa49f1a223b428728b5322f872d206fd17b84dc02b294b65a6599c025f05fceed8488888860405161065b9493929190610a44565b60405180910390a46001805490600061067383610a80565b9190505550505050505050565b60006020828403121561069257600080fd5b5035919050565b6000815180845260005b818110156106bf576020818501810151868301820152016106a3565b506000602082860101526020601f19601f83011685010191505092915050565b60208152815160208201526000602083015160018060a01b038082166040850152806040860151166060850152505060608301516080830152608083015160a083015260a083015160e060c084015261073c610100840182610699565b905060c0840151601f198483030160e08501526107598282610699565b95945050505050565b8781526001600160a01b03878116602083015286166040820152606081018590526080810184905260e060a082018190526000906107a290830185610699565b82810360c08401526107b48185610699565b9a9950505050505050505050565b634e487b7160e01b600052604160045260246000fd5b600082601f8301126107e957600080fd5b813567ffffffffffffffff80821115610804576108046107c2565b604051601f8301601f19908116603f0116810190828211818310171561082c5761082c6107c2565b8160405283815286602085880101111561084557600080fd5b836020870160208301376000602085830101528094505050505092915050565b600080600080600060a0868803121561087d57600080fd5b8535945060208601356001600160a01b038116811461089b57600080fd5b935060408601359250606086013567ffffffffffffffff808211156108bf57600080fd5b6108cb89838a016107d8565b935060808801359150808211156108e157600080fd5b506108ee888289016107d8565b9150509295509295909350565b600181811c9082168061090f57607f821691505b60208210810361092f57634e487b7160e01b600052602260045260246000fd5b50919050565b601f82111561097f57600081815260208120601f850160051c8101602086101561095c5750805b601f850160051c820191505b8181101561097b57828155600101610968565b5050505b505050565b815167ffffffffffffffff81111561099e5761099e6107c2565b6109b2816109ac84546108fb565b84610935565b602080601f8311600181146109e757600084156109cf5750858301515b600019600386901b1c1916600185901b17855561097b565b600085815260208120601f198616915b82811015610a16578886015182559484019460019091019084016109f7565b5085821015610a345787850151600019600388901b60f8161c191681555b5050505050600190811b01905550565b848152836020820152608060408201526000610a636080830185610699565b8281036060840152610a758185610699565b979650505050505050565b600060018201610aa057634e487b7160e01b600052601160045260246000fd5b506001019056fea2646970667358221220a5790e9e00eeb5fffdfa3e74741acac453edaebbb46fabf0a48703451c0a49e364736f6c63430008130033",
  "immutableReferences": {},
  "source": "// SPDX-License-Identifier: MIT\r\npragma solidity ^0.8.19;\r\n\r\ncontract FundTransfer {\r\n    struct Transaction {\r\n        uint256 id;\r\n        address sender;\r\n        address receiver; // Added receiver\r\n        uint256 senderBalance;\r\n        uint256 amount;\r\n        string transactionId;\r\n        string details;\r\n    }\r\n\r\n    mapping(uint256 => Transaction) public transactions;\r\n    uint256 public transactionCount;\r\n\r\n    event TransferFund(\r\n        uint256 indexed id,\r\n        address indexed sender,\r\n        address indexed receiver,\r\n        uint256 senderBalance,\r\n        uint256 amount,\r\n        string transactionId,\r\n        string details\r\n    );\r\n\r\n    function transferFund(\r\n        uint256 _id,\r\n        address payable _receiver, // Added receiver as function parameter\r\n        uint256 _amount,\r\n        string memory _transactionId,\r\n        string memory _details\r\n    ) public payable {\r\n        require(_amount > 0, \"Amount must be greater than zero\");\r\n        require(msg.value == _amount, \"Sent value must match amount\");\r\n        require(_receiver != address(0), \"Invalid receiver address\");\r\n\r\n        uint256 senderBalance = address(msg.sender).balance;\r\n\r\n        // Transfer funds to the receiver\r\n        _receiver.transfer(_amount);\r\n\r\n        // Store transaction details\r\n        transactions[transactionCount] = Transaction(\r\n            _id,\r\n            msg.sender,\r\n            _receiver,\r\n            senderBalance,\r\n            _amount,\r\n            _transactionId,\r\n            _details\r\n        );\r\n\r\n        emit TransferFund(_id, msg.sender, _receiver, senderBalance, _amount, _transactionId, _details);\r\n        transactionCount++;\r\n    }\r\n\r\n    function getTransaction(uint256 _id) public view returns (Transaction memory) {\r\n        return transactions[_id];\r\n    }\r\n}\r\n",
  "sourcePath": "C:\\College\\Blockchain\\ZKP\\Smart Contract\\contracts\\FundTransfer.sol",
  "compiler": {
    "name": "solc",
    "version": "0.8.19+commit.7dd6d404.Emscripten.clang"
  },
  "schemaVersion": "3.4.16",
  "updatedAt": "2025-03-24T15:02:38.125Z",
  "networkType": "ethereum",
  "devdoc": {
    "kind": "dev",
    "methods": {},
    "version": 1
  },
  "userdoc": {
    "kind": "user",
    "methods": {},
    "version": 1
  }
}