{
  "contractName": "FundTransfer",
  "abi": [
    {
      "anonymous": false,
      "inputs": [
        {
          "indexed": true,
          "internalType": "uint256",
          "name": "id",
          "type": "uint256"
        },
        {
          "indexed": true,
          "internalType": "address",
          "name": "sender",
          "type": "address"
        },
        {
          "indexed": false,
          "internalType": "uint256",
          "name": "senderBalance",
          "type": "uint256"
        },
        {
          "indexed": false,
          "internalType": "uint256",
          "name": "amount",
          "type": "uint256"
        },
        {
          "indexed": false,
          "internalType": "string",
          "name": "transactionId",
          "type": "string"
        },
        {
          "indexed": false,
          "internalType": "string",
          "name": "details",
          "type": "string"
        }
      ],
      "name": "TransferFund",
      "type": "event"
    },
    {
      "inputs": [],
      "name": "transactionCount",
      "outputs": [
        {
          "internalType": "uint256",
          "name": "",
          "type": "uint256"
        }
      ],
      "stateMutability": "view",
      "type": "function",
      "constant": true
    },
    {
      "inputs": [
        {
          "internalType": "uint256",
          "name": "",
          "type": "uint256"
        }
      ],
      "name": "transactions",
      "outputs": [
        {
          "internalType": "uint256",
          "name": "id",
          "type": "uint256"
        },
        {
          "internalType": "address",
          "name": "sender",
          "type": "address"
        },
        {
          "internalType": "uint256",
          "name": "senderBalance",
          "type": "uint256"
        },
        {
          "internalType": "uint256",
          "name": "amount",
          "type": "uint256"
        },
        {
          "internalType": "string",
          "name": "transactionId",
          "type": "string"
        },
        {
          "internalType": "string",
          "name": "details",
          "type": "string"
        }
      ],
      "stateMutability": "view",
      "type": "function",
      "constant": true
    },
    {
      "inputs": [
        {
          "internalType": "uint256",
          "name": "_id",
          "type": "uint256"
        },
        {
          "internalType": "uint256",
          "name": "_amount",
          "type": "uint256"
        },
        {
          "internalType": "string",
          "name": "_transactionId",
          "type": "string"
        },
        {
          "internalType": "string",
          "name": "_details",
          "type": "string"
        }
      ],
      "name": "transferFund",
      "outputs": [],
      "stateMutability": "nonpayable",
      "type": "function"
    },
    {
      "inputs": [
        {
          "internalType": "uint256",
          "name": "_id",
          "type": "uint256"
        }
      ],
      "name": "getTransaction",
      "outputs": [
        {
          "components": [
            {
              "internalType": "uint256",
              "name": "id",
              "type": "uint256"
            },
            {
              "internalType": "address",
              "name": "sender",
              "type": "address"
            },
            {
              "internalType": "uint256",
              "name": "senderBalance",
              "type": "uint256"
            },
            {
              "internalType": "uint256",
              "name": "amount",
              "type": "uint256"
            },
            {
              "internalType": "string",
              "name": "transactionId",
              "type": "string"
            },
            {
              "internalType": "string",
              "name": "details",
              "type": "string"
            }
          ],
          "internalType": "struct FundTransfer.Transaction",
          "name": "",
          "type": "tuple"
        }
      ],
      "stateMutability": "view",
      "type": "function",
      "constant": true
    }
  ],
  "bytecode": "0x608060405234801561001057600080fd5b50610950806100206000396000f3fe608060405234801561001057600080fd5b506004361061004c5760003560e01c806333ea3dc81461005157806337591e451461007a5780639ace38c21461008f578063b77bf600146100b4575b600080fd5b61006461005f366004610531565b6100cb565b6040516100719190610590565b60405180910390f35b61008d6100883660046106a5565b610287565b005b6100a261009d366004610531565b6103e0565b6040516100719695949392919061071c565b6100bd60015481565b604051908152602001610071565b61010d6040518060c001604052806000815260200160006001600160a01b03168152602001600081526020016000815260200160608152602001606081525090565b60008281526020818152604091829020825160c0810184528154815260018201546001600160a01b0316928101929092526002810154928201929092526003820154606082015260048201805491929160808401919061016c9061076e565b80601f01602080910402602001604051908101604052809291908181526020018280546101989061076e565b80156101e55780601f106101ba576101008083540402835291602001916101e5565b820191906000526020600020905b8154815290600101906020018083116101c857829003601f168201915b505050505081526020016005820180546101fe9061076e565b80601f016020809104026020016040519081016040528092919081815260200182805461022a9061076e565b80156102775780601f1061024c57610100808354040283529160200191610277565b820191906000526020600020905b81548152906001019060200180831161025a57829003601f168201915b5050505050815250509050919050565b600083116102db5760405162461bcd60e51b815260206004820181905260248201527f416d6f756e74206d7573742062652067726561746572207468616e207a65726f604482015260640160405180910390fd5b6040805160c0810182528581523360208083018281529131838501818152606085018981526080860189815260a08701899052600180546000908152958690529790942086518155945196850180546001600160a01b0319166001600160a01b03909816979097179096555160028401559351600383015551600482019061036390826107f7565b5060a0820151600582019061037890826107f7565b50905050336001600160a01b0316857f40c3b96a167aa7429930dac0b2f6c50ec506f28c5686b69290a1a0313a2a79c1838787876040516103bc94939291906108b7565b60405180910390a3600180549060006103d4836108f3565b91905055505050505050565b6000602081905290815260409020805460018201546002830154600384015460048501805494956001600160a01b0390941694929391926104209061076e565b80601f016020809104026020016040519081016040528092919081815260200182805461044c9061076e565b80156104995780601f1061046e57610100808354040283529160200191610499565b820191906000526020600020905b81548152906001019060200180831161047c57829003601f168201915b5050505050908060050180546104ae9061076e565b80601f01602080910402602001604051908101604052809291908181526020018280546104da9061076e565b80156105275780601f106104fc57610100808354040283529160200191610527565b820191906000526020600020905b81548152906001019060200180831161050a57829003601f168201915b5050505050905086565b60006020828403121561054357600080fd5b5035919050565b6000815180845260005b8181101561057057602081850181015186830182015201610554565b506000602082860101526020601f19601f83011685010191505092915050565b602081528151602082015260018060a01b03602083015116604082015260408201516060820152606082015160808201526000608083015160c060a08401526105dc60e084018261054a565b905060a0840151601f198483030160c08501526105f9828261054a565b95945050505050565b634e487b7160e01b600052604160045260246000fd5b600082601f83011261062957600080fd5b813567ffffffffffffffff8082111561064457610644610602565b604051601f8301601f19908116603f0116810190828211818310171561066c5761066c610602565b8160405283815286602085880101111561068557600080fd5b836020870160208301376000602085830101528094505050505092915050565b600080600080608085870312156106bb57600080fd5b8435935060208501359250604085013567ffffffffffffffff808211156106e157600080fd5b6106ed88838901610618565b9350606087013591508082111561070357600080fd5b5061071087828801610618565b91505092959194509250565b86815260018060a01b038616602082015284604082015283606082015260c06080820152600061074f60c083018561054a565b82810360a0840152610761818561054a565b9998505050505050505050565b600181811c9082168061078257607f821691505b6020821081036107a257634e487b7160e01b600052602260045260246000fd5b50919050565b601f8211156107f257600081815260208120601f850160051c810160208610156107cf5750805b601f850160051c820191505b818110156107ee578281556001016107db565b5050505b505050565b815167ffffffffffffffff81111561081157610811610602565b6108258161081f845461076e565b846107a8565b602080601f83116001811461085a57600084156108425750858301515b600019600386901b1c1916600185901b1785556107ee565b600085815260208120601f198616915b828110156108895788860151825594840194600190910190840161086a565b50858210156108a75787850151600019600388901b60f8161c191681555b5050505050600190811b01905550565b8481528360208201526080604082015260006108d6608083018561054a565b82810360608401526108e8818561054a565b979650505050505050565b60006001820161091357634e487b7160e01b600052601160045260246000fd5b506001019056fea264697066735822122075902bde4e9ea04960a3067c1197292591916595b197bfdddc8d1982fc0f038364736f6c63430008130033",
  "immutableReferences": {},
  "source": "// SPDX-License-Identifier: MIT\r\npragma solidity ^0.8.19;\r\n\r\ncontract FundTransfer {\r\n    struct Transaction {\r\n        uint256 id;\r\n        address sender;\r\n        uint256 senderBalance;\r\n        uint256 amount;\r\n        string transactionId;\r\n        string details;\r\n    }\r\n\r\n    mapping(uint256 => Transaction) public transactions;\r\n    uint256 public transactionCount;\r\n\r\n    event TransferFund(\r\n        uint256 indexed id,\r\n        address indexed sender,\r\n        uint256 senderBalance,\r\n        uint256 amount,\r\n        string transactionId,\r\n        string details\r\n    );\r\n\r\n    function transferFund(\r\n        uint256 _id,\r\n        uint256 _amount,\r\n        string memory _transactionId,\r\n        string memory _details\r\n    ) public {\r\n        require(_amount > 0, \"Amount must be greater than zero\");\r\n\r\n        uint256 senderBalance = address(msg.sender).balance;\r\n        transactions[transactionCount] = Transaction(\r\n            _id,\r\n            msg.sender,\r\n            senderBalance,\r\n            _amount,\r\n            _transactionId,\r\n            _details\r\n        );\r\n\r\n        emit TransferFund(_id, msg.sender, senderBalance, _amount, _transactionId, _details);\r\n        transactionCount++;\r\n    }\r\n\r\n    function getTransaction(uint256 _id) public view returns (Transaction memory) {\r\n        return transactions[_id];\r\n    }\r\n}\r\n",
  "sourcePath": "C:\\College\\Blockchain\\ZKP\\Smart Contract\\contracts\\FundTransfer.sol",
  "compiler": {
    "name": "solc",
    "version": "0.8.19+commit.7dd6d404.Emscripten.clang"
  },
  "schemaVersion": "3.4.16",
  "updatedAt": "2025-03-22T11:21:14.322Z",
  "networkType": "ethereum",
  "devdoc": {
    "kind": "dev",
    "methods": {},
    "version": 1
  },
  "userdoc": {
    "kind": "user",
    "methods": {},
    "version": 1
  }
}